:020000040800F2
:1000000070FB002071020008D90D00086B06000883
:10001000D50D000819050008231A0008000000008B
:1000200000000000000000000000000009130008AC
:100030001D050008000000008512000821140008BA
:100040008B0200088B0200088B0200088B0200085C
:100050008B0200088B0200088B0200088B0200084C
:100060008B0200088B0200088B0200088B0200083C
:100070008B0200088B0200088B0200088B0200082C
:100080008B0200088B0200088B0200088B0200081C
:100090008B0200088B0200088B0200088B0200080C
:1000A0008B0200088B0200088B0200088B020008FC
:1000B0008B0200088D1400088B0200088B020008D8
:1000C0008B0200088B0200088B0200088B020008DC
:1000D0008B0200083D1900088B0200088B02000803
:1000E0008B0200088B0200088B0200088B020008BC
:1000F0008B0200088B0200088B0200088B020008AC
:100100008B0200088B0200088B0200088B0200089B
:100110008B0200088B0200088B0200088B0200088B
:100120008B0200088B0200088B0200088B0200087B
:100130008B0200088B0200088B0200088B0200086B
:100140008B0200088B0200088B0200088B0200085B
:100150008B0200088B0200088B0200088B0200084B
:100160008B0200088B0200088B0200088B0200083B
:100170008B0200088B0200088B0200088B0200082B
:100180008B0200088B02000800F002F800F060F813
:100190000AA090E8000C82448344AAF10107DA45E2
:1001A00001D100F055F8AFF2090EBAE80F0013F0D4
:1001B000010F18BFFB1A43F001031847344B00002E
:1001C000544B000010F8013B0A4413F0030408BF2D
:1001D00010F8014B1D1108BF10F8015B641E05D01B
:1001E00010F8016B641E01F8016BF9D1002D15D0D8
:1001F00010F8014B03F00C030C2BA1EB04040ABF15
:1002000010F8013BA4EB8314A4EB032405F10103D4
:1002100014F8016B5B1E01F8016BF9D5914238BFF0
:1002200010F8013BD1D3704700230024002500269D
:10023000103A28BF78C1FBD8520728BF30C148BF49
:100240000B6070471FB501F0EDFF1FBD10B510BD6D
:1002500000F033F81146FFF7F5FF01F0FFFC00F066
:1002600051F803B4FFF7F2FF03BC01F0DCFB000020
:100270000948804709480047FEE7FEE7FEE7FEE73A
:10028000FEE7FEE7FEE7FEE7FEE7FEE70448054976
:10029000054A064B70470000251400088901000834
:1002A00070F5002070FB002070F7002070F7002030
:1002B00070477047704770477047754600F028F8E0
:1002C000AE4605006946534620F00700854618B043
:1002D00020B5FFF7DBFFBDE820404FF000064FF0F0
:1002E00000074FF000084FF0000B21F00701AC466B
:1002F000ACE8C009ACE8C009ACE8C009ACE8C0098A
:100300008D4670470446AFF300802046FFF7A9FFF3
:100310000048704710F5002021B1826842F00102C8
:10032000826003E0826822F0010282607047000070
:100330000021084A1168084A1140D0E900231A43F5
:1003400083681A43C3681A431143044AC2F804136A
:100350007047000004230140E030FCFF0020014012
:100360000146C86C80B270470246002013680B40FB
:100370000BB1012000E000207047000030B50246BC
:10038000002000235068104C20400D790C6844EA8E
:1003900005242043506090680C4C2040D1E9035460
:1003A0002C438D682C434D7944EA450420439060EA
:1003B000D06A20F470000C7D641EE4B2234340EA4E
:1003C0000350D06230BD0000FFFEFFFCFDF7FFC010
:1003D000F0B504460D4600200021092D11DDE0682E
:1003E000A5F10A0606EB4607072606FA07F1884339
:1003F000A5F10A0606EB460603FA06F10843E0609B
:100400000CE0206905EB4507072606FA07F188434B
:1004100005EB450603FA06F108432061072A0FDAC7
:10042000606B561E06EB86071F2606FA07F1884307
:10043000561E06EB860605FA06F10843606322E0C5
:100440000D2A0FDA206BD61F06EB86071F2606FA49
:1004500007F18843D61F06EB860605FA06F1084326
:10046000206310E0E06AA2F10D0606EB86071F2666
:1004700006FA07F18843A2F10D0606EB860605FA97
:1004800006F10843E062F0BD816841F0804181607F
:100490007047000000B58DB00121084600F0F4FE61
:1004A0000121080200F010FF20200B9003208DF89E
:1004B000300000208DF833000BA9154800F02FF80C
:1004C0000121080200F010FF00214FF4807000F0BD
:1004D0000BFF002007900A9009904FF4803008909D
:1004E00007A8FFF725FF002001908DF808008DF880
:1004F00009000390059001208DF8180001A9054816
:10050000FFF73CFF01210348FFF706FF0DB000BDD8
:10051000000002400020014000BFFEE77047F0B538
:100520000A4600210023002400BF3DE0012505FA12
:1005300001F3156805EA03049C4234D105684F00B5
:100540000326BE40B543056015794E00B5400668E8
:10055000354305601579012D02D01579022D16D18C
:1005600085684F000326BE40B543856055794E002F
:10057000B540866835438560456801268E40B543A1
:100580004560456896798E40B6B235434560C5688A
:100590004F000326BE40B543C560D5794E00B54037
:1005A000C6683543C560491C1029BFD3F0BDF0B5FE
:1005B000002300244D07ED0E02FA05F3CE1000F1E2
:1005C000200555F826504E07F70E0F26BE40B543BE
:1005D000CF1000F1200646F82750CE1000F120057C
:1005E00055F8265045EA0304CE1000F1200545F8E1
:1005F0002640F0BD0246002013690B400BB10120DC
:1006000000E00020704701837047000010B50446E9
:100610000723012221460848FFF7DAFE0648FFF7C4
:1006200033FF00BF02210448FFF79EFE0028F9D0E7
:100630000148FFF795FE10BD002001402DE9F04173
:1006400007460C460025002608E03846FFF7DEFF87
:100650000544052001F024FA701CC6B2A642F4DB62
:10066000B5FBF4F080B2BDE8F08100BFFEE700000A
:100670001CB50121112000F007FE1C200090002075
:100680008DF8040003208DF8050001208DF8070087
:1006900069460648FFF743FF0120009002208DF8CD
:1006A000070069460248FFF73AFF1CBD00100240F0
:1006B0000000024010B5044614B101202C49087016
:1006C0002B480078002837D010212A48FFF792FFE6
:1006D00078B108212748FFF78DFF50B10421254844
:1006E000FFF788FF28B101212348FFF783FF012886
:1006F00022D10A2001F0B8F900201D49087010210C
:100700001C48FFF777FF08B9012010BD08211948E0
:10071000FFF770FF08B90220F7E704211548FFF73B
:1007200069FF08B90320F0E701211348FFF762FFD2
:1007300001281BD10420E8E710210E48FFF75AFFDB
:10074000012813D108210B48FFF754FF01280DD1D0
:1007500004210848FFF74EFF012807D10121064870
:10076000FFF748FF10B90120014908700020CCE7CD
:1007700024040020001002400000024030B5002494
:100780000CE0002506E00020074901EBC4114855A4
:10079000681C85B2802DF6DB601CC4B2A02CF0DB97
:1007A00000F0B2F930BD000048A400202DE9F0416E
:1007B0000025002400260027A0462A2000F0C6F9C4
:1007C000002000F081FA002000F07EFA002000F006
:1007D0007BFA7F2000F078FA2B2000F0B7F9002098
:1007E00000F072FA222000F06FFA002000F06CFA9C
:1007F000622000F069FA2C2000F0A8F900BF25E083
:10080000152D0ADA002405E00021F82000F0D8F9BF
:10081000601CC4B2802CF7DB16E02A2D0ADA002413
:1008200005E0E021072000F0CBF9601CC4B2802C69
:10083000F7DB09E0002405E01F21002000F0C0F9EB
:10084000601CC4B2802CF7DB681CC5B2402DD7DB1E
:10085000BDE8F0811CB501211A2000F015FD4FF60E
:100860008070009001208DF8040000208DF80600B3
:1008700003208DF8050001208DF8070069469D488A
:10088000FFF74DFE4FF4E060009069469A48FFF78D
:1008900046FE4FF40040009069469848FFF73FFE3F
:1008A000002097490860142001F0DEF801209549E6
:1008B000C1F8BC02642001F0D7F8112000F046F91D
:1008C000782001F0D1F8B12000F040F9012000F0CB
:1008D000FBF92C2000F0F8F92D2000F0F5F9B220FA
:1008E00000F034F9012000F0EFF92C2000F0ECF9D1
:1008F0002D2000F0E9F9B32000F028F9012000F0E4
:10090000E3F92C2000F0E0F92D2000F0DDF90120C2
:1009100000F0DAF92C2000F0D7F92D2000F0D4F9FE
:10092000B42000F013F9072000F0CEF9C02000F049
:100930000DF9A22000F0C8F9022000F0C5F98420CA
:1009400000F0C2F9C12000F001F9C52000F0BCF9A7
:10095000C22000F0FBF80A2000F0B6F9002000F0F9
:10096000B3F9C32000F0F2F88A2000F0ADF92A2094
:1009700000F0AAF9C42000F0E9F88A2000F0A4F9F8
:10098000EE2000F0A1F9C52000F0E0F80E2000F004
:100990009BF9362000F0DAF8602000F095F9262067
:1009A00000F0D4F8042000F08FF9E02000F0CEF839
:1009B0000F2000F089F91A2000F086F90F2000F0CE
:1009C00083F9182000F080F92F2000F07DF928200D
:1009D00000F07AF9202000F077F9222000F074F975
:1009E0001F2000F071F91B2000F06EF9232000F0A9
:1009F0006BF9372000F068F9002000F065F9072056
:100A000000F062F9072000F05FF9102000F05CF9B7
:100A1000E12000F09BF80F2000F056F91B2000F0B9
:100A200053F90F2000F050F9172000F04DF9332052
:100A300000F04AF92C2000F047F9292000F044F991
:100A40002E2000F041F9302000F03EF9302000F077
:100A50003BF9392000F038F93F2000F035F900204B
:100A600000F032F9072000F02FF9032000F02CF9F4
:100A7000102000F029F9F02000F068F8012000F0C3
:100A800023F9F62000F062F8002000F01DF93A206A
:100A900000F05CF8052000F017F9132000F056F87C
:100AA000292000F053F8282000F0DEFF2A2000F073
:100AB0004DF8002000F008F9002000F005F90020B2
:100AC00000F002F97F2000F0FFF82B2000F03EF844
:100AD000002000F0F9F8002000F0F6F8002000F007
:100AE000F3F89F2000F0F0F8FFF748FE142000F024
:100AF000BBFF1CBD00100240000C0240000402407D
:100B0000BC8240420080404230B52C2000F01EF8EC
:100B1000002415E000250FE00B4800EBC410405DF9
:100B200020B1FF21084600F04BF803E0FF21084602
:100B300000F046F8681CC5B2802DEDDB601CC4B225
:100B4000A02CE7DB30BD000048A4002030B50146F2
:100B50000020002209E04FF6FF7404EA400001F093
:100B6000010420434910541CA2B2072AF3DD4FF6BA
:100B7000FF7404EA002001240D4D2C6000240D4D6B
:100B8000C5F8A8420C4D2C6001240A4DC5F8A442BA
:100B90000A4C246904F47F43084C638320830024B7
:100BA000034D2D1D2C6001242C60034D2C6030BDA5
:100BB000A0824142008041429C0242420010024019
:100BC0002DE9F04102460B460020002100270CE0F1
:100BD0004FF6FF7C0CEA400002F0010C4CEA0000EA
:100BE000521007F1010C1FFA8CF7072FF0DD0024DB
:100BF0000CE04FF6FF7C0CEA410103F0010C4CEADB
:100C000001015B1004F1010C1FFA8CF4072CF0DDDC
:100C10004FF6FF7C0CEA00200CEA01214FF0010C9A
:100C2000DFF89880C8F8A0C2C8F8A8C24FF0000C3E
:100C3000DFF88C80C8F89CC24FF0010CDFF87C8094
:100C4000C8F8A4C2DFF87CC0DCF810C00CF47F4602
:100C5000DFF870C0ACF81A60ACF818004FF0000C68
:100C6000C8F8A4C24FF0010CC8F8A4C2DFF8508045
:100C7000C8F89CC24FF0000CC8F89CC24FF0010CA1
:100C8000DFF83880C8F8A4C2DFF838C0DCF810C03C
:100C90000CF47F45DFF82CC0ACF81A50ACF81810F3
:100CA0004FF0000CC8F8A4C24FF0010CC8F8A4C261
:100CB000DFF80C80C8F89CC2BDE8F081008041429A
:100CC000000042420010024030B5014600200022E0
:100CD00009E04FF6FF7404EA400001F001042043EC
:100CE0004910541CA2B2072AF3DD4FF6FF7404EA40
:100CF000002001240D4D2C600D4DC5F8A8420024A4
:100D00000C4D2C6001240A4DC5F8A4420A4C2469FC
:100D100004F47F43084C638320830024034D2D1D7E
:100D20002C6001242C60034D2C6030BDA082414218
:100D3000008041429C02424200100240F0B507464A
:100D40000C4615461E462A20FFF700FF0020FFF73D
:100D5000BBFF3846FFF7B8FF0020FFF7B5FF284676
:100D6000FFF7B2FF2B20FFF7F1FE0020FFF7ACFFEB
:100D700004F12201C8B2FFF7A7FF0020FFF7A4FF8C
:100D800006F12201C8B2FFF79FFF2C20FFF7DEFE1D
:100D9000F0BD00001CB50121202000F075FA4FF4D1
:100DA000C060009001208DF8040000208DF806003E
:100DB00003208DF8050001208DF8070069460448DE
:100DC000FFF7ADFB4FF4C0610148FFF71CFC1CBDF1
:100DD0000014024000BFFEE77047000070B500211C
:100DE00000230F22C4781CB3174C246804F4E06479
:100DF000C4F5E064C4F30721C1F10404E3B20A417D
:100E000044789C40E1B28478144021430C07210EC1
:100E10000E4C05786155047804F01F050124AC40A0
:100E200005786D11AD0005F1E025C5F8004109E038
:100E3000047804F01F050124AC40054D06787611B6
:100E400045F8264070BD00000CED00E000E400E035
:100E500080E100E002490143024A1160704700004E
:100E60000000FA050CED00E000B5084800F0F0F9CC
:100E7000B1EE040A054880ED000A9FED050A80EDF9
:100E8000010A9FED040A80ED020A00BD340400202F
:100E9000CDCC4C3F0000000030B503460C46DC488A
:100EA0000088844203DDDA480088211A02E0D8482D
:100EB0000088011BD7480078002873D00A2903D97D
:100EC000322901D8012289E0962903D9FA2901D8CB
:100ED000022283E0FA2904D9B1F5AF7F01D80322B9
:100EE0007CE0B1F5AF7F04D9B1F5E17F01D80422F0
:100EF00074E0B1F5E17F05D940F22620814201D8A6
:100F000005226BE040F22620814205D940F28A207A
:100F1000814201D8062261E040F28A20814205D94F
:100F200040F2EE20814201D8072257E040F2EE2045
:100F3000814205D940F27E40814201D808224DE02D
:100F400040F27E40814205D940F2AA50814201D848
:100F5000092243E040F2AA50814205D940F20E60D6
:100F6000814201D80A2239E040F20E60814205D95F
:100F700040F2D660814201D80B222FE040F2D660C9
:100F8000814205D940F29E70814201D80C2225E0B1
:100F900040F29E70814206D940F69210814202D8FA
:100FA00010221BE0E6E040F69210814205D940F69F
:100FB000EA30814201D80D2210E040F6EA30814249
:100FC00001D90E220AE0322903D9642901D80F225F
:100FD00004E0642902D9962900D81122122A14D2D9
:100FE000DFE802F0C409141F2A35404B56616C77C4
:100FF000828D98A3AEB9B0EE081A874880ED001A2A
:10100000B0EE081A854880ED001AAFE09FED841A13
:10101000814880ED001AB0EE081A804880ED001A71
:10102000A4E09FED801A7C4880ED001AB0EE081A0B
:101030007A4880ED001A99E09FED7B1A764880EDA2
:10104000001AB0EE041A754880ED001A8EE0B0EE7A
:10105000001A714880ED001AB0EE041A6F4880ED56
:10106000001A83E09FED711A6B4880ED001AB0EE14
:10107000041A6A4880ED001A78E09FED6D1A664800
:1010800080ED001AB0EE041A644880ED001A6DE09D
:101090009FED681A604880ED001AB0EE041A5F48B0
:1010A00080ED001A62E09FED641A5B4880ED001A43
:1010B000B0EE041A594880ED001A57E09FED5F1A10
:1010C000554880ED001AB0EE041A544880ED001A1D
:1010D0004CE09FED5B1A504880ED001AB0EE041A08
:1010E0004E4880ED001A41E09FED551A4A4880EDC8
:1010F000001AB0EE041A494880ED001A36E09FED60
:10110000501A454880ED001AB0EE041A434880EDAD
:10111000001A2BE09FED4B1A3F4880ED001A9FED1F
:101120004A1A3E4880ED001A20E09FED481A3A48DE
:1011300080ED001AB0EE081A384880ED001A15E06C
:101140009FED3F1A344880ED001AB0EE041A334880
:1011500080ED001A0AE09FED3C1A2F4880ED001A3E
:10116000B0EE041A2D4880ED001A00BF00BF002029
:10117000284D2870D3ED031A01EE101AB8EE411A6B
:1011800031EE611AFCEEC10AD3ED031A01EE101A1A
:10119000B8EE411AB0EE002A02EE611AD3ED041A3D
:1011A00031EE211ABCEEC10A93ED031A83ED041A45
:1011B00001EE101AB8EE411A83ED031A0A2924D958
:1011C00093ED001A1548D0ED001A21EE211AF8EE21
:1011D000601A61EE211A93ED011A0F4890ED002A72
:1011E00021EE022A01EE101AF8EE412AB0EE611A41
:1011F00002EE221AD3ED021AB8EE402A01EE821A4C
:10120000BCEEC11A11EE100A30BD0020FCE7000050
:101210000004002008040020200400201C040020FA
:10122000CDCC2C4033332340CDCC0C40A470DD3FDB
:10123000CDCCCC3F3333B33F9A99993FEC51983F93
:101240003D0A973FCDCC8C3F333333409A99394098
:101250009FED0A0A0A4981ED020A9FED080A81ED15
:10126000010A9FED060A81ED030A9FED040A81ED54
:10127000040A9FED020A81ED000A70470000000099
:10128000340400207047000029B1064A1268024366
:10129000044B1A6004E0034A12688243014B1A604F
:1012A000704700003038024029B1064A12680243F4
:1012B000044B1A6004E0034A12688243014B1A602F
:1012C000704700004038024029B1064A12680243C4
:1012D000044B1A6004E0034A12688243014B1A600F
:1012E000704700004438024029B1064A12680243A0
:1012F000044B1A6004E0034A12688243014B1A60EF
:101300007047000024380240704700000CB50020F0
:10131000019000903448006840F480303249086001
:1013200000BF3148006800F4003000900198401C74
:101330000190009818B90198B0F5A04FF1D12A4852
:10134000006800F4003010B10120009001E000209E
:1013500000900098012846D123484030006840F0B2
:1013600080502149403108602048006840F44040E6
:101370001E4908601C48083000681B490831086095
:101380000846006840F4004008600846006840F4E1
:10139000A05008601648091F0860081F006840F048
:1013A0008070091F086000BF0F48006800F00070DF
:1013B0000028F9D040F205700E4908600A4808304C
:1013C000006820F0030008490831086008460068FA
:1013D00040F00200086000BF03480830006800F0D9
:1013E0000C000828F8D10CBD003802400070004005
:1013F00008544007003C0240042808D14FF0E02187
:10140000096941F004014FF0E022116107E04FF05B
:10141000E021096921F004014FF0E02211617047D9
:101420007047000010B51548006840F4700013497B
:1014300008601348006840F001001149086000206E
:101440000F49083108600E4800680E4908400C49F1
:1014500008600D48091D0860081F006820F48020FE
:10146000091F0860002006490C310860FFF74EFF95
:101470004FF0006001498039086010BD88ED00E040
:1014800000380240FFFFF6FE1030002410B50121A5
:10149000244800F01DF9002839D02348007864283A
:1014A0000FDD01202149087000201F49087000212C
:1014B0001F4800F0FEF8002201211A4800F019F937
:1014C00025E005210846FFF7B9F81A4908600846E3
:1014D00001681948FFF7E0FC1849086000F088FD32
:1014E0001449098888B200F027FB154801681048A4
:1014F00000F0AFF9134801680D4800F0ACF912484C
:10150000006808B9012000E000200F490860064883
:101510000078401C044908700121024800F0BAF824
:1015200010BD000000040040180400200204002048
:101530000004014004040020340400200C040020B6
:101540001004002014040020A482424230B58FB061
:1015500005460C4601210220FFF7B6FE01210420BA
:10156000FFF792FE032206213A48FFF720F80322F4
:1015700007213848FFF71BF802208DF83800C020FB
:101580000D9002208DF8390000208DF83A000120DE
:101590008DF83B000DA92F48FEF7C1FF0020ADF8E4
:1015A0003000ADF82A000B95A0B2ADF828000AA9CA
:1015B000294800F053F94FF48070ADF82400602002
:1015C000ADF814004FF40070ADF826000020ADF81F
:1015D0002200ADF820000420ADF818000120ADF87D
:1015E000160005A91C4800F08DF805A91A4800F05E
:1015F000D1F80821184800F0C3F80821164800F077
:101600001BF90121144800F029F80020ADF8100062
:101610004FF48050ADF80C004000ADF80E000220F1
:10162000ADF80A000020ADF808004FF48060ADF876
:1016300006004000ADF8040001A9074800F01AF8C0
:101640000121054800F029F80121034800F031F894
:101650000FB030BD000802400004014021B10288F3
:1016600042F08002028004E002884FF67F731A4045
:10167000028070470A884B881A438B881A43CB88AC
:101680001A430B891A434B891A438B891A43A0F8D2
:1016900044207047CA430282704721B1028842F059
:1016A0000102028004E002884FF6FE731A400280B5
:1016B000704731B1B0F8442042F40042A0F8442011
:1016C00005E0B0F84420C2F30E02A0F844207047B1
:1016D00030B50246002000230024158A05EA0103E4
:1016E000958905EA010413B10CB1012000E0002046
:1016F00030BD1AB183890B43838102E083898B4318
:101700008381704770B5002400220023058C4FF6BA
:10171000FE7635400584028C8388048B4FF68F75E6
:101720002C40B51E2C400D882C43751E2A408D89F7
:101730002A434D882A43104DA84202D00F4DA8429B
:1017400013D14FF6F7752A40CD892A434FF6FB7522
:101750002A408D882A434FF6FF652B404FF6FF55F0
:101760002B400D8A2B434D8A2B43838004838D6845
:101770004563028470BD0000000001400004014088
:101780000A460021018B4FF6F7731940114301837C
:101790007047000070B5002400220023058C4FF62E
:1017A000EF7635400584028C8388048B48F6FF75FC
:1017B0002C404FF6FF452C400D884FF6FF7606EA89
:1017C00005252C434FF6DF752A408D8906EA05155D
:1017D0002A434D8806EA05152A43154DA84202D032
:1017E000144DA8421DD14FF67F752A40CD894FF682
:1017F000FF7606EA05152A434FF6BF752A408D8805
:1018000006EA05152A434FF6FF352B404FF2FF75C8
:101810002B400D8A06EA85052B434D8A06EA85058D
:101820002B43838004838D688563028470BD000030
:1018300000000140000401400A460021018B4FF2E4
:10184000FF7319404FF6FF7303EA02231943018324
:10185000704741637047816370470000002202882F
:10186000184B98420ED0184B98420BD0B0F1804FD5
:1018700008D0164B984205D0154B984202D0154B14
:10188000984204D14FF68F731A404B881A43124B7B
:10189000984207D0114B984204D04FF6FF431A40AC
:1018A0000B891A4302804B68C3620B880385054B82
:1018B000984202D0044B984201D18B7A03860123CF
:1018C0008382704700000140000401400004004092
:1018D00000080040000C00400010004000140040D0
:1018E0007FB505460C4601210220FFF7DDFC0020F4
:1018F000ADF80C00ADF806000295ADF8044001A962
:101900000D48FFF7ABFF012211460B48FFF7F1FE30
:101910001D208DF8000001208DF803008DF80100D6
:1019200003208DF802006846FFF758FA01210248AB
:10193000FFF7B3FE7FBD00000004004010B540F289
:1019400025511D4800F03EF810B31B4800F064F824
:10195000C4B21A48008800F40040C8B9174800888B
:1019600000F4804060B10A2C03D0002013490880A5
:1019700020E01248008840F400401049088019E037
:101980000D2C06D10D48008840F480400B4908809A
:1019900010E00A480088C0F30D0009490C540748BC
:1019A0000088401C0549088008460088C72801DDDA
:1019B0000020088010BD000000100140300400200D
:1019C00048F4002070B502460024002300250020C2
:1019D00040F66A16B14200D100BFC1F3421501F0D2
:1019E0001F03012606FA03F3012D02D19689334025
:1019F00006E0022D02D1168A334001E0968A334078
:101A00000C12012606FA04F41688344013B10CB106
:101A1000012000E0002070BD01468888C0F3080066
:101A2000704700BFFEE7014600BF704710B504468F
:101A30006FF00400FFF7E0FCE11704EB5171C1F314
:101A4000C701074A11701046007800EB4001C1EB56
:101A5000C0104FF6FF7101EAC0000249088010BDB6
:101A6000260400202804002070B504464FF40770B7
:101A700094FBF0F0C6B24FF4077094FBF0F100FB5A
:101A8000114085B205E04FF4077000F02FF8701E8A
:101A9000C6B2002EF7D115B1284600F027F870BD68
:101AA0000146114A12784A434FF0E0235A6100225E
:101AB0009A611A46126942F001021A6100BF4FF0A2
:101AC000E022106900F001021AB100F48032002A0D
:101AD000F5D04FF0E022126922F001024FF0E0232E
:101AE0001A6100229A617047260400200146114ABB
:101AF00012884A434FF0E0235A6100229A611A4645
:101B0000126942F001021A6100BF4FF0E022106931
:101B100000F001021AB100F48032002AF5D04FF033
:101B2000E022126922F001024FF0E0231A61002244
:101B30009A617047280400200B490988884207DA17
:101B40000A4909680A4A116000210A4A11600AE03C
:101B500005490988884206DD04490968054A11607B
:101B60000021034A11607047000400200C0400208B
:101B700010040020140400202DE9F0410024002668
:101B80002A20FEF7E3FF0020FFF79EF80020FFF772
:101B90009BF80020FFF798F87F20FFF795F82B209F
:101BA000FEF7D4FF0020FFF78FF82220FFF78CF814
:101BB0000020FFF789F86220FFF786F82C20FEF757
:101BC000C5FF00BF08E0234B621C995C1A46105DFC
:101BD000FEF7F6FFA01C84B2B4F50C5FF3DB4023E4
:101BE0001F2223210020FFF7A9F800262CE01A4825
:101BF000875DB8F1730F0EDD681CC5B2691C012347
:101C0000C3EB4111CAB26907080E40232321FFF735
:101C100095F84FF0000808F1010000F0FF080024DB
:101C20000EE007F0010020B100210846FEF7C8FFD2
:101C300003E0C6219920FEF7C3FF7F10601C84B229
:101C4000082CEEDB701C86B2B6F5E87FCFDBBDE872
:101C5000F08100001E2800081E4B0008A820FFF796
:101C6000E5FE4FF4A060FFF7F5F8FEF7F3FDFEF791
:101C700011FCFFF78FF8FEF7FBFCFFF7F5F800F01B
:101C8000C9F900F009FA00F049FA00F089FA41F2C6
:101C90008830FFF7E9FEFFF76FFF41F28830FFF76A
:101CA000E3FEFEF783FD4CA20021084600F086F912
:101CB0004BA21621002000F081F94BA22C2100201C
:101CC00000F07CF9032140F2F310FFF73FFC42F2F1
:101CD000CF016320FFF704FE7DE014210520FEF70D
:101CE000ADFC06460120FEF7E5FC05462DB1601C63
:101CF00084B2142C02DD142400E00024012D13D042
:101D0000022D1AD0032D26D0042D37D10A2C05DA46
:101D100037480088401C3649088004E03448008871
:101D200032303349088029E03248006808B9012080
:101D300000E000202F49086020E00A2C05DA2C483A
:101D40000088401E2A49088004E02948008832386B
:101D50002749088012E02848007870B101202749FF
:101D6000087000202449087001212548FFF7A1FCD4
:101D7000012211462348FFF7BCFC00BF00BF1C48EE
:101D80000088322803DC32201949088008E018480E
:101D9000008840F6DC71884202DB0846144908805E
:101DA000134802880021502000F0D2F83246162154
:101DB000502000F0CDF80E480088871B002F01DB73
:101DC000384600E0784282B22C21502000F0C0F862
:101DD0006420FFF749FE80E75461726765743A003A
:101DE00041637475616C3A004572726F72203A00FB
:101DF00000040020A48242420204002008040020C3
:101E0000000401400004004010B50246012000E03B
:101E100050430B00A1F10104E1B2F9D110BDF0B5BE
:101E200007460E4606F10F00C3B207F11F00C2B20B
:101E300031463846FEF782FF152E10DA00240BE0FB
:101E4000002505E00021F820FEF7BAFE681CC5B2A7
:101E5000202DF7DB601CC4B2102CF1DB22E02A2E0F
:101E600010DA00240BE0002505E0E0210720FEF752
:101E7000A7FE681CC5B2202DF7DB601CC4B2102C75
:101E8000F1DB0FE000240BE0002505E01F2100201E
:101E9000FEF796FE681CC5B2202DF7DB601CC4B2AD
:101EA000102CF1DBF0BD00002DE9F04307460D4694
:101EB000904605F10F00C3B2F81DC2B2294638465C
:101EC000FEF73CFF00263CE0204800EB0810845D54
:101ED0004FF0000930E0152D0DDA04F0010020B1BB
:101EE00000210846FEF76CFE03E00021F820FEF713
:101EF00067FE64101CE02A2D0DDA04F0010020B109
:101F000000210846FEF75CFE03E0E0210720FEF713
:101F100057FE64100CE004F0010020B100210846D7
:101F2000FEF74EFE03E01F210020FEF749FE64107D
:101F300009F1010000F0FF09B9F1080FCBDB701CBB
:101F4000C6B2102EC0DBBDE8F08300002E220008D0
:101F50002DE9F04F07468B46154600264FF0010A43
:101F600059463846FFF75BFF00BF701CC6B20AEB4C
:101F70008A004FEA400AAA45F7D900241AE0301B2C
:101F8000401EC1B20A20FFF73FFFB5FBF0F00A2167
:101F9000B0FBF1F201FB120808F1100000F0FF099C
:101FA0004A4659463846FFF77FFF07F10800C7B297
:101FB000601CC4B2B442E2DBBDE8F08FF0B5054668
:101FC0000F4614460CE02678A6F12000C6B2324631
:101FD00039462846FFF768FF641C05F10800C5B2C2
:101FE00020787E2802DC20782028ECDAF0BD000082
:101FF00040F2F310064909684242914201DA04496D
:10200000086003490968814201DD014908607047A1
:102010000C0400202DE9F0410024A0460F231A46AD
:1020200000210846FEF78AFE00252FE01948475D8B
:10203000B8F11F0F0EDD601CC4B2611C0123C3EB9D
:102040000111CAB22107080E0F230021FEF776FE08
:102050004FF0000808F1010000F0FF0800260EE034
:1020600007F0010020B100210846FEF7A9FD03E0BA
:102070000021F820FEF7A4FD7F10701CC6B2082EC8
:10208000EEDB0520FFF7F0FC681C85B2FF2DCDDDEF
:10209000BDE8F081000000202DE9F0410024A046B9
:1020A0001F230F2210210020FEF748FE00252FE0FD
:1020B0001948475DB8F11F0F0EDD601CC4B2611CEA
:1020C0000123C3EB0111CAB22107080E1F231021FF
:1020D000FEF734FE4FF0000808F1010000F0FF08A1
:1020E00000260EE007F0010020B100210846FEF7AF
:1020F00067FD03E01F210020FEF762FD7F10701CCA
:10210000C6B2082EEEDB0520FFF7AEFC681C85B2D8
:10211000FF2DCDDDBDE8F081000100202DE9F0416B
:102120000024A0462F230F2220210020FEF706FEC8
:1021300000252FE01948475DB8F11F0F0EDD601C28
:10214000C4B2611C0123C3EB0111CAB22107080EFE
:102150002F232021FEF7F2FD4FF0000808F10100C7
:1021600000F0FF0800260EE007F0010020B100217A
:102170000846FEF725FD03E00821FC20FEF720FDC0
:102180007F10701CC6B2082EEEDB0520FFF76CFC3A
:10219000681C85B2FF2DCDDDBDE8F0810002002076
:1021A0002DE9F0410024A0463F230F2230210020DA
:1021B000FEF7C4FD00252FE01948475DB8F11F0F59
:1021C0000EDD601CC4B2611C0123C3EB0111CAB255
:1021D0002107080E3F233021FEF7B0FD4FF0000825
:1021E00008F1010000F0FF0800260EE007F00100F2
:1021F00020B100210846FEF7E3FC03E0E0210720C0
:10220000FEF7DEFC7F10701CC6B2082EEEDB052048
:10221000FFF72AFC681C85B2FF2DCDDDBDE8F081FB
:10222000000300204FF04070E1EE100A70470000FC
:10223000000000000000000000000000000000009E
:1022400000080808080808080000181800000048DE
:102250006C241200000000000000000000000000DC
:10226000002424247F1212127F1212120000000098
:10227000081C2A2A0A0C1828282A2A1C08080000E8
:102280000022251515152A58545454220000000028
:10229000000C1212120A76252911916E0000000618
:1022A00006040300000000000000000000000040E1
:1022B000201010080808080808101020400000022C
:1022C0000408081010101010100808040200000084
:1022D000000008086B1C1C6B0808000000000000D0
:1022E0000000080808087F0808080800000000002F
:1022F00000000000000000000000060604030000CB
:10230000000000000000FE000000000000000000CF
:1023100000000000000000000000060600000000B1
:102320008040402020101008080404020200000031
:102330000018244242424242424224180000000057
:1023400000080E08080808080808083E00000000F9
:10235000003C4242422020100804427E000000005F
:10236000003C4242201820404042221C0000000055
:1023700000203028242422227E2020780000000023
:10238000007E0202021A26404042221C0000000089
:1023900000382402021A264242422418000000009B
:1023A000007E22221010080808080808000000001B
:1023B000003C4242422418244242423C00000000B9
:1023C00000182442424264584040241C000000008F
:1023D000000000001818000000001818000000009D
:1023E00000000000000800000000000808040000D1
:1023F00000402010080402040810204000000000E3
:10240000000000007F0000007F00000000000000CE
:102410000002040810204020100804020000000000
:10242000003C4242464020101000181800000000F6
:10243000001C225A555555552D42221C0000000003
:10244000000808181414243C224242E7000000004F
:10245000001F2222221E22424242221F00000000B0
:10246000007C4242010101010142221C00000000E7
:10247000001F2242424242424242221F000000000C
:10248000003F4212121E12120242423F00000000A0
:10249000003F4212121E1212020202070000000048
:1024A000003C2222010101712122221C00000000B7
:1024B00000E7424242427E42424242E700000000C0
:1024C000003E0808080808080808083E0000000048
:1024D000007C10101010101010101010110F0000C0
:1024E000007722120A0E0A12122222770000000040
:1024F00000070202020202020202427F0000000004
:102500000077363636362A2A2A2A2A6B000000003F
:1025100000E346464A4A52525262624700000000B7
:10252000001C2241414141414141221C0000000068
:10253000003F424242423E02020202070000000007
:10254000001C2241414141414D53321C60000000BA
:10255000003F4242423E1212222242C700000000C7
:10256000007C4242020418204042423E000000002B
:10257000007F4908080808080808081C0000000037
:1025800000E74242424242424242423C00000000D6
:1025900000E7424222242414141808080000000016
:1025A000006B494949495555362222220000000056
:1025B00000E7422424181818242442E700000000F1
:1025C00000772222141408080808081C00000000E4
:1025D000007E2120101008040442423F00000078D1
:1025E0000808080808080808080808087800000013
:1025F0000202040408080810102020204040001E99
:102600001010101010101010101010101E000038B4
:102610004400000000000000000000000000000076
:1026200000000000000000000000000000FF0006A5
:102630000800000000000000000000000000000092
:1026400000000000003C4278444242FC00000000D0
:1026500000030202021A26424242261A000000002B
:10266000000000000038440202024438000000006C
:102670000060404040784442424264D8000000007C
:1026800000000000003C427E0202423C00000000CC
:1026900000F08808087E08080808083E00000000CE
:1026A00000000000007C22221C023C42423C000050
:1026B00000030202023A4642424242E700000000A2
:1026C000000C0C00000E08080808083E000000007E
:1026D000003030000038202020202020221E000062
:1026E000000302020272120A161222770000000092
:1026F000000E0808080808080808083E0000000046
:1027000000000000007F9292929292B700000000B9
:1027100000000000003B4642424242E70000000049
:1027200000000000003C42424242423C00000000E7
:1027300000000000001B26424242221E0207000049
:1027400000000000007844424242447840E000002B
:102750000000000000774C040404041F0000000087
:1027600000000000007C42023C40423E00000000AD
:1027700000000008083E08080808083000000000B3
:102780000000000000634242424262DC00000000A0
:102790000000000000E742242414080800000000A4
:1027A0000000000000EB49495555222200000000BE
:1027B00000000000007624181818246E00000000A5
:1027C0000000000000E74224241418080807000055
:1027D00000000000007E22100808447E000000C0B7
:1027E000202020202010202020202020C000101099
:1027F00010101010101010101010101010100006F3
:1028000008080808081008080808080806000C321C
:10281000C200000000000000000000000000A2282C
:10282000A1C699C699C699C699C699C699C699C6A8
:1028300099C699C699C699C699C699C699C699C6A0
:1028400099C699C699C699C699C699C699C699C690
:1028500099C699C699C699C699C6A1C6A1C6A1C668
:10286000A1C6A1C6A1C6A1C6A1C6A1C6A1C6A1C630
:10287000A1C6A1C6A1C6A9C6A9C6A9C6A9A6A9C618
:10288000A9A6A965A965A986A986A986A985B2E987
:10289000AB4AAB09AB09AB09A309A2E9A2E9A2E8DB
:1028A000A2E8A2C8A2C8AAE9AAE9A329B268C145B8
:1028B000B985B985B965B965C165B9A6B9A6B9A61D
:1028C000B9A6B9A6B9A6B9A6B9A6B9A6B9C6B9C6D0
:1028D000B9C6B9C6C1A6C1A6C1A6C1A6C1A6C1A690
:1028E000C1A6C1A6C1A6C1A6C1A6C1A6C1A6C1A6B0
:1028F000C1A6C1A6C1A6C1A6C1A6C1A6B9A6B9A6B0
:10290000B9A6B9A6B9A6B9A6B9A6B9A6B9C6B9C68F
:10291000B9C6B9C6B9C6B9C6B9C6B9C6BA289986BC
:102920009965994599459945994599459945994597
:1029300099459945994599459945994599459945A7
:102940009945994599459945994599459945994597
:102950009945994599459945994599459945994587
:102960009945A165A145A145A145A145A145A1451F
:10297000A145A144A144A144A944A145A144A12445
:10298000A9C5B2A7AA87AA67AA67AA47A267AC0B7C
:10299000A48C9C4C9C4B9C2B940B940A93EA93CA5A
:1029A0008BC98BA98BAA93CA93EB944BA3AAAA4673
:1029B000B267AA67B267B287BA87B985B924B94442
:1029C000B944B944B944B944B944B944B944B9441F
:1029D000B944B944C144C144C144B944B944B944F7
:1029E000B944B944B944B944B944B944B944B944FF
:1029F000B944B944B944B944B944B944B944B944EF
:102A0000B944B944B944B944B944B944B944B944DE
:102A1000B944B944B944B944B944B944B18599C633
:102A200099459144914491449144914491449144F5
:102A300091449144914491449144914491449144EE
:102A400091449144914491449144914491449144DE
:102A500091449144914491449144994499449944B6
:102A6000994499449944994499449944994499447E
:102A700099449944A144A144A144A125A165A1037D
:102A8000AAC8BD0EB4CDACACAC8CAC8DAC6DA44CB6
:102A90009C2B9C2B9C0B93EA93EA93CA8BAA8B8961
:102AA0008B898B898B898B8993AA93EA9C0B9C2BAE
:102AB000A44CA48CAC6CACCDB4EDB226B103B14443
:102AC000B144B144B144B144B144B144B944B9444E
:102AD000B944B944B944B944B944B944B944B9440E
:102AE000B944B944B944B944B944B944B944B944FE
:102AF000B944B944B944B944B944B944B924B9242E
:102B0000B924B924B144B144B144B144B144B1444D
:102B1000B124B124B144B144B144B944B1C699C659
:102B200099459144914491449144914491449144F4
:102B300091449144914491449144914491449144ED
:102B400091449144914491449144914491449144DD
:102B500091449144914491449144994499449944B5
:102B6000994499449944994499449944994499447D
:102B700099449944A144A144A144A144A144A1037E
:102B8000AAA7BD2EB4CDACACAC8CA48CA46C9C6CB0
:102B90009C4CA40B9C0B9BEA9BCA93CA93CA93AA16
:102BA0008B898B898B688B8993A993CA93EAA40B31
:102BB0009C4B9C6CA44CAC8CB4ADB206B103B1443C
:102BC000B144B144B144B144B144B144B144B1445D
:102BD000B144B924B924B924B924B924B944B944B5
:102BE000B944B944B944B944B944B944B944B944FD
:102BF000B944B944B944B944B944B924B124B1245D
:102C0000B124B124B144B144B144B144B144B1445C
:102C1000B124B124B144B144B144B144B1A699C680
:102C200099459144914491449144914491449144F3
:102C300091449144914491449144914491449144EC
:102C400091449144914491449144914491449144DC
:102C500091449144914491449144994499449944B4
:102C6000994499449944994499449944994499447C
:102C70009944A144A144A144A144A144A14499037D
:102C8000AAA7BD0EB4CDB48CAC6CAC6CA46CA44C37
:102C9000A42B9C2B9C0B9BEB93EA93EA93CA93A9DE
:102CA0008BA98B898B898BA98BA993CA93EA9C0BDF
:102CB0009C2BA42CA46CAC8CACADB206B103B1447B
:102CC000B144B144B144B144B144B144B944B9444C
:102CD000B944B944B124B124B124B124B124B124FC
:102CE000B124B924B944B944B944B944B124B12494
:102CF000B124B124B124B124B124B924B144B144E4
:102D0000B144B144B144B144B144B144B144B1441B
:102D1000B144B144B144B144B144B144B1A699C63F
:102D200099459144914491449144914491449144F2
:102D300091449144914491449144914491449144EB
:102D400091449144914491449144914491449144DB
:102D500091449144914491449144994499449944B3
:102D6000994499449944994499449944994499447B
:102D70009944A144A144A144A144A144A14499037C
:102D8000AAA7BD2EB4CDB48CAC8CA46CAC6CA44CF6
:102D90009C6C9C6CA40B9BEB940B93EA93CA93CA18
:102DA0008BA9938983898B898B8993CA93EA93EA48
:102DB0009C0BA42CA46CAC6CAC8DB206B103B144DA
:102DC000B144B144B144B144B144B144B944B9444B
:102DD000B944B944B144B144B144B144B144B1443B
:102DE000B144B144B924B924B924B924B144B1449B
:102DF000B144B144B144B144B144B144B144B1442B
:102E0000B144B144B144B144B144B144B144B1441A
:102E1000B144B144B144B144B144B144B1A699C63E
:102E200099459144914491449144914491449144F1
:102E300091449144914491449144914491449144EA
:102E400091449144914491449144914491449144DA
:102E500091449144914491449144994499449944B2
:102E6000994499449944994499449944994499447A
:102E70009944A144A144A144A144A144A14499037B
:102E8000AAA7BD2EB4CDB4ACAC8CAC6CA46CA44CD5
:102E9000A42BA40B9C0B940B9BCA9BAA93AA93896B
:102EA0009389936983A98B6893698BC993EA9BEA99
:102EB0009C0BA42B9C4CAC6CAC8CB206B103B14403
:102EC000B144B144B144B144B144B144B144B1445A
:102ED000B144B144B144B144B144B144B144B1444A
:102EE000B144B144B924B924B924B144B144B14482
:102EF000B144B144B144B144B144B144B144B1442A
:102F0000B144B144B144B144B144B144B144B14419
:102F1000B144B144B124B124B144B144B1A699C67D
:102F200099459144914491449144994499449944D8
:102F300099449144914491449144914599449944D0
:102F400099449144914491449144914491449144D1
:102F500091449144914491449144994499449944B1
:102F60009944994499449944994499449944994479
:102F70009944994499449944A1449944A14499039A
:102F8000AAA7BD2EB4CDB4ACAC8CAC6CA48CAC6C8C
:102F9000AA67A124A226A349A164A164A184A18453
:102FA000A164A1A59AE8A9A5A9449AA793EA9BEAD6
:102FB0009C0B9C2BA44CAC6CAC8CB206B104B14401
:102FC000B144B144B144B144B144B144B144B14459
:102FD000B144B144B144B144B144B144B144B14449
:102FE000B144B144B144B144B144B144B144B14439
:102FF000B144B144B144B144B144B144B144B14429
:10300000B144B144B144B144B144B144B144B14418
:10301000B144B144B124B144A944B144B1C699C644
:1030200099459144994599459145914491449144DC
:1030300091449144914491449144994599459944CE
:1030400099449144914491449144914491449144D0
:1030500091449144914491449144914491449144C8
:10306000914499459945994599459944994499447C
:10307000994499449944994499449944A1449903A1
:10308000AAA8C54EBCEDB4ADAC8CAC8CAC6CA46C39
:103090009AA79964A226A349A1A5A985A985A9856E
:1030A000A985A1A59B08A1C5A1649AA793EA93EA63
:1030B0009BEB9C2BA44CA46CAC8CB206B104B14429
:1030C000B144B144B144B144B144B144B144B14458
:1030D000B144B144B144B144B144B144B144B14448
:1030E000B144B144B144B144B144B144B144B14438
:1030F000B144B144B144B144B144B144B124B12468
:10310000B144B144B144B144B144B144A944A94427
:10311000A944A944B124A944A944B144B1C699C65B
:1031200099459144994499249944914491449144F6
:1031300091449924992499249944994491459165FD
:1031400091659144914491449144914491449144B6
:1031500091449144914491449144914491449144C7
:10316000914499459945994599459944994499447B
:10317000994499449944994499449944A1449903A0
:10318000AAA8C54EBCEDB4CDAC8CAC8CB46CA48CF0
:10319000AC2CAC0CA40B9C0B9BEB9BCA93CA93AAC4
:1031A00093A993898B898389936993698BCA93EADD
:1031B0009C0B9C2BA44BA46CAC8CB206B104B14408
:1031C000B124B144B144B144B144B144B144B14477
:1031D000B144B144B144B144B144B144B144B14447
:1031E000B144B144B144B144B144B144B144B14437
:1031F000B144B144B144B144B144B144B144B14427
:10320000B124B124B124B124B124B124B124B12416
:10321000B124B124A944A944A944B144B1C699C672
:103220009945994491659144914491249124912424
:10323000912491249124912491249144916599445D
:1032400099459144914491449144914491449144CD
:1032500091449144914491449144914491449144C6
:10326000914499459945994599459944994499447A
:10327000994499449944994499449944A14499039F
:10328000AAA8C54EBCEDB4CDB4ADAC8CAC6CAC8CC6
:10329000A2C8A184A247A36AA1C5A1A5A1A5A1A571
:1032A000A1A5A1C59B08A1E5A1649AA793CA93CA49
:1032B0009BEA9C2B9C2BA44CAC8CA9E6A904A944AA
:1032C000A924B144B144B144B144B144B144B1447E
:1032D000B144B144B144B144B144B144B144B14446
:1032E000B144B144B144B144B144B144B144B14436
:1032F000B144B144B144B144B144B144B144B14426
:10330000B144B124B124B124B124B124A924A92405
:10331000A924A924A924A944A944B144B1C699C6A1
:103320009945994491858A678A879287928792877F
:1033300092878A878A878A87928791E6912499045F
:103340009904910499249945914491459145914559
:1033500091449945994499459945914491449144A2
:10336000914499449944994499449944994499447D
:10337000994499449944994499449944A144A0E3B7
:10338000AAC8C56FBCEDBCCDB4ACAC8CAC8CAC6C7D
:10339000A287A123A226A349A184A164A164A16458
:1033A000A164A1A59AE8A985A924928793AA93CAA2
:1033B00093EA9C0BA42B9C6CA48CB206A903A94491
:1033C000A924A944A944B144B144B144B144B1448D
:1033D000B144B144B144B144B144B144B124B14465
:1033E000B144B124B124B124B124B144B144B144B5
:1033F000B144B144B144B144B124B124B104A924CD
:10340000A2469A879A879A879A879A879A879A87ED
:103410009A8792A7A206B124A944B144B1A699C63D
:103420009945914491858B698BA98B898B898B896F
:103430008B898B898B898B898B898AE891E599E6C1
:10344000920692069165910491049104910491046D
:1034500091049104910491039104910490E490E407
:1034600090E490E490E390E390E390E390E390E3C2
:1034700090E390E490E4910490E49904910498C35B
:1034800099C5BCCDC52EB4CDB4CDAC8CAC8CA46CE0
:10349000AC2CA40B9C2B9C2B9BEB9BCA9BCA9BCA62
:1034A00093AA93898BC9936993488B698B8993EA13
:1034B000940A940BA40BA46CAB8AA964A8E3A90397
:1034C000A903A903A8E3A8E3A8E3A8E3A8E3A8E362
:1034D000A8E3A8E3A8E4A8E3A8E3A8E3A8E3B1036A
:1034E000B103B103A903A903B103B123B123B1030C
:1034F000B103B103B103A9A5AA069A05A1C5A1E527
:103500008B488BA98B898B898B898B898B898B893C
:103510008B8983C992E8A924A944B144B1A699C66C
:103520009945914491858B488B698B688B6883683A
:1035300083688B688B688B6883688B6893699389D1
:1035400093CA9BCB930892A79AC89AC89AC8A2C854
:10355000A2E8A309A309A329AB49B349B349B36AB4
:10356000B38ABBAABBAABBCBBBCBC3CBC3EBC3EB5E
:10357000C3EBC3CBC3ABBBAABBAABB8AB3AAB36A18
:10358000B349BC8CC52EB4EDB4CDAC8CACACA48C22
:10359000A46CA46CA44CA40B9C2B9C0B93EA93EA04
:1035A00093EA93CA8BA98B898B898B898B8993CA60
:1035B00093EA940B9C2BA44CA38AA2C8AB09B32911
:1035C000B329BB49BB69BB8AC38AC3AAC3CACBCBD5
:1035D000CBEBCBEBCBCBCBCAC3AAC38AC38ABB6929
:1035E000BB69BB49B329B308AB08AAE8AAE8A2C8DB
:1035F000A2C8A2A7A2A79B299BCA8B89938993697A
:1036000083898B898B898B898B898B8983698B696A
:103610008B6983A992E7A944A944B144B1A699C68C
:103620009945914491858B698B898B688B688B68F0
:103630008B688B688B688B68836883888BA98BC940
:103640008BC993EA9BEA9C0B9C4BA44CA46CA48C66
:10365000AC8CACADB4CDB4EEBD2EC54DCD6ED5AFFA
:10366000D5CFDDF0DE10DE31E651EE91EE91EEB217
:10367000EE91E671E691E691DE71DE10D5F0CDCFE8
:10368000D5AFCD4EC50EBCEDB4CDB4ADAC8CAC8CCD
:10369000A46CA44C9C2B9C4C9C2B9C0B93EA93EA13
:1036A00093EA93CA8BA98BA983888B898B898BA971
:1036B00093CA9BEA9C2B9C4BA46CACADACCDB4EDF7
:1036C000BD4EC5AECDEFCDEFD5EFDE30DE51E671AC
:1036D000EEB2EEB1E671E650DE30D610D5F0CDAFE9
:1036E000C58FC56EBD2DB4EDACCDACADA48CA46CB6
:1036F0009C4C9C4B9C2B940A8BCA8BAA8BA983C98C
:103700008B898B698B898B898B898B698B698B6999
:103710008B898BA99AC7A924A944A944A9C699C68B
:103720009945914591658A878AA792468B488B680F
:103730008B688B688B688B688B688B288AE893080A
:1037400093A98BC993CA9BEA9C0A9C0BA42BA44CFB
:10375000AC6CAC6CB48CB4ACBCCDBD0DC52DCD6E19
:10376000CD6ED58FD5AFDDCFDDF0E610E631E65179
:10377000E630E611CCCDCC6DCC8CD58FCDAFCD8FD6
:10378000C54EC54EC52EBCEDBCEDACACAC8CAC8C06
:10379000A46CA44CA44C9C4C9C2B9C0B9C0B93EABF
:1037A00093EA93CA93898B898B898B698B898BA9BF
:1037B00093CA9BEA9C0B9C2BA44CA46CAC6CB4AC41
:1037C000B48CBBCAC3EBC4ADD5B0DDD0DDD0E61040
:1037D000E630E630E630E5F0DDD0DDCFD5AFCD6EBA
:1037E000C54EC52DBCEDB4ADAC8CAC6CA46CA44C7A
:1037F0009C4B9C2B9BEA93CA93CA9389930892E8AB
:1038000093698B698B698B698B698B698B89930849
:103810009A4692C7A206A924A924A944A9C699C672
:1038200099459145912491A591E691448B488B68E7
:103830008B688B688B688B688B898A86910489C5B5
:10384000936993C99BCA93CA9BEAA40AA42BA42B8D
:10385000AC4BAC6BB48CB48CBCACC4EDC52ECD4EB3
:10386000CD6ED58FD5AFDDD0DDF0E610E631EE318F
:10387000EE31E5F1A20690C399A5D52ECDCFD56F37
:10388000CD4EC52EC50EBCEDBCCDB4ACAC8CAC8C55
:10389000AC6CA44CA44CA42B9C2B9C0B9C0B93EACF
:1038A00093EA93AA93AA8B898B898B698B688B89FE
:1038B00093CA93EA9C0B9C2BA44CA44CAC6CB4AC68
:1038C000ABCAA124A8C3B2C8D5AFD5AFDDD0DDF057
:1038D000E611E631E630DDF0DDD0D5B0D58FCD6F25
:1038E000C52EC50EBCEDB4CDACACAC8CAC6CA44B51
:1038F000A42B9C0B9C0B93EA93CA9B28A944A96414
:1039000093088B898B698B698B698B8983A992C793
:10391000A903A226A164A924A944A944A9C699C6B9
:1039200099459145992491C5920691648B488B687D
:103930008B688B688B688B688B898A8798C3918525
:1039400093898BEA93EA940A9C2B9C4B9C6BA48CE6
:10395000A48CACACACACACCDB4EDBD2DC56ECD8EF5
:10396000CDCFD5CFD610DE30DE50E650EE91EEB2A0
:10397000EEB2E651A20598A39985CD8EDE30D5CF63
:10398000CDCFCDAFC58EBD4EBD2DB50DACEDACCD03
:10399000ACCCA4ACA4AC9C8C9C6B9C4B9C4B942B53
:1039A000940B940A8BEA8BCA8BCA83A983A98BC90F
:1039B0008BEA940A942B9C6C9C8CA48DA4ACAD0DCA
:1039C000ABAAA924A8E3BAC8D5F0D610DE30DE51E0
:1039D000E691EEB1E6B1E671DE50DE30D610CDCF25
:1039E000CDAFC58FC54EB52DACEDACCCA4ACA48C81
:1039F000A48C9C4B9C4B942B942B9B28B124A924E6
:103A000092E883898B698B698B698B8983A992C7BB
:103A1000A144A226A164A924A924A944A9C699C69F
:103A200099459945992491C5920691648B488B6874
:103A30008B688B688B688B688B898A87910491A5CA
:103A4000932992C89AC89AE89B099B09A329A3299C
:103A5000A349A34AA34AAB6AAB8AB38AB3CAB3EAFF
:103A6000BBEBBC0BC42BC42BC44CCC6CCC6CCC8D32
:103A7000CC8CDD4FAA4790E3A1C5C4EDCC2BBC0B89
:103A8000BC0BBBEBBBEBB3CAB3AAAB8AAB8AAB6ACA
:103A9000AB6AAB49AB49A329A329A3299B089B087F
:103AA0009B089AE89AE89AC89AC892C792A792C7C0
:103AB0009AE89AE8A308A309AB29A349A349B3CA82
:103AC000B38AA144A103B308CCADCC0BCC4BD44CEE
:103AD000D46CD48CD48CD46CCC4BCC4BCC2BC40BB2
:103AE000C3EBC3EBBBAABB8AB38AB36AAB69AB496E
:103AF000A349A329A309AAE89B289B08A164A94478
:103B000092E88B898B698B698B698B8983A992C7B2
:103B1000A144A226A164A924A924A944A9C699C69E
:103B200099459945992491C5920691648B488B6873
:103B30008B688B688B688B688B898A87912491C589
:103B4000926790E491049104910490E490E490E4ED
:103B500090E490E490E490E390E388C490E488C318
:103B600088C388C388C388C388C288C388A388A23F
:103B70008082BBAAAA4890E3A9E6BBAB88C290C3E7
:103B800088E390C390C390C490E498E398E398E3EB
:103B900098E398E398E398E398E398E3A0E3A1031C
:103BA000A103A0E3A0E3A103A104A103A103A10336
:103BB000A103A103A103A0E3A0E3A0E3A8E3A184E0
:103BC000AB49A144A903BB09B2879882A0A3A0A3D3
:103BD000A0A3A0A2A0A2A0A2A0C3A0C3A0C2A0C351
:103BE000A0C3A0C3A8C2A8C3A8E3A8E3A8E3A8E30E
:103BF000A8E3A8E3A8E3B0C39964A2A7A944A924B1
:103C0000930883A98B698B698B698B6983A992C798
:103C1000A1449A26A164A924A944A944A9C699C685
:103C200099459944992491C5920691648B488B6873
:103C30008B688B688B688B688B898A87990491A5C0
:103C40009308928792A792A79AA89AC79AE89AE8A7
:103C50009AE89B08A308A329A329AB49AB69B369D8
:103C6000B389B3AAB3AAB3CABBCABBEAC3EBC3EB5B
:103C7000C40BD52FAA4790E3A1C6CCCDBBCABBAA23
:103C8000BBAAB38AB38AB369B349AB49AB29AB28A2
:103C9000A328A308A2E9A2E8A2E8A2E89AE89AC8A1
:103CA0009AC79AA79AA79AA792879A879A8792877C
:103CB0009A879AA79AC7A2C8A2E8A2E8A2E8AB4A44
:103CC000AB69A924A8E4B309BC4CBB89C3CAC3CA65
:103CD000C3EACC0BCC0BCC0BCBEAC3CAC3AAC3AA96
:103CE000C3AABB89B389B369B348AB28AB09AB0995
:103CF000A2E8A2E8A2E8A2C8A2E89B08A944A924D5
:103D00008B088B898B698B698B698B6983A992E797
:103D1000A1449A26A164A144A144A944A9C699C674
:103D200099459944992491C5920691648B488B6872
:103D30008B688B688B688B688B899267990491A5D7
:103D40008B698BA993AA93CA9BEA9C0A9C2BA44BD0
:103D5000A44BA46CAC8CACADB4ADBCCDC50ECD4EFB
:103D6000CD6FCD8FD5B0D5D0DDF0E610E631EE5277
:103D7000F692EE11A22690E499A6D58FDE11D5D049
:103D8000D5B0D58FCD6FCD4EC52EBD0DB4EDB4CD14
:103D9000ACADAC8DAC6CAC6CAC6CA44C9C2B9C0BEB
:103DA0009C0B9BEA93CA93CA93AA93A98B898B898C
:103DB00093A993CA9BEA9C0BA42BA44CA46CACAD16
:103DC000A3CAA124A8E3B2E8D58FD58FD5CFDDF063
:103DD000E631EE51EE72EE72E631E611DDF1D5D04C
:103DE000D58FCD8FC56FC52EBCEDB4CDAC8DAC8D50
:103DF000AC6CA44CA44C9C2B9C0B9349A924A924E7
:103E00008B088B898B698B698B698B6983A992E796
:103E1000A1449A46A164A144A144A944A9C699C653
:103E200099459944992491C5920691648B488B6871
:103E30008B688B688B688B688B898A87990491C59E
:103E400092A791649185918591A591A591A591A540
:103E500091A591A591A591A591A599A599A599A59A
:103E600099A599A599A599A599A599C599C599C502
:103E700091A4C44CAA6790E3A1E6CC0C99C599C65D
:103E800099C599C599C599A599A599A599A599A5E2
:103E900099A599A599A599A599A599A5A18499846C
:103EA0009984A185A185A185A18599849984998406
:103EB0009984A185A185A185A185A185A1859A2641
:103EC000B329A143A103BAE9B329A184A9A5A9A54E
:103ED000A9C5A9C5A9C5A9E5A9C5A9C5A9A5A9A592
:103EE000A9C5A9A5A9A5A9A5A9A5A9A5A1A5A1A552
:103EF000A185A985A1A5A18499E5A2C8A944A92461
:103F00008B088B898B698B698B698B6983A992E795
:103F1000A1449A46A164A144A144A964A9C699A652
:103F200099659944992491C5920691648B488B6850
:103F30008B688B688B688B688B898A87910491A5C5
:103F40008B0892C892C892E89AE89AC89B289B2846
:103F50009B28A349A349AB69A36AA38AABAAABCAAE
:103F6000B3CBB3EBB40BBC0CC40BC44CC46CCC6C67
:103F7000CC8CDD6FAA4790E4A1C6CD0DC44CCC2BF0
:103F8000C42BBBEBBBEABBEBB3EBB3AAB38AAB6905
:103F9000AB69A369AB49A349A329A3299B29A329F9
:103FA0009B089AE89B089AE892C892C792A792C782
:103FB00092C792C79AE8A2E89B29A349A329AB8A92
:103FC000AB69A144A0E3B2C8C48DC3EBBC2BC44C05
:103FD000CC4BCC4CD48CD48CCC6CCC4CCC2BC42CBB
:103FE000C42CC40BBBEABBAABBAAABAAAB6AAB6925
:103FF000AB29A369A329A3099B499B28A144A92410
:1040000093088B898B698B698B698B6983A992E78C
:10401000A1449A46A184A144A144A164A9C699C619
:1040200099459944992491C5920691648B488B686F
:104030008B688B688B688B688B89926791049185FC
:104040008B498B898B8993AA93CA9BEA9BCAA3EB62
:10405000AC2BA42BA46CAC4CB46CB48CBCACBD2D00
:10406000CD0ECD2ECD4FD56FD5F0D5D0DDF0E5F00E
:10407000EE51EE30A22690C499A5D58FDDF1D58EF4
:10408000D58FCD8FC5AEC52EC52EBCEDBCADB50E42
:10409000AC8CAC8CAC4CA46CA48CA40B9C2BA40B53
:1040A0009C0B942B93CA93AA93A98BA98BA98B6978
:1040B0008B698B8993CA93EA93EB9C0BA42BA48CFA
:1040C000A3AAA123A8E3AAC8C56FCD4ECD6FDD8FEB
:1040D000DDF0DE30E610EE30E610DE30DE30DDAF53
:1040E000D58FCD6EC54FC56FC4CDB4ADB48DAC6C9E
:1040F000A48CA44B9C2BA40B9C2B9B49A144A124D6
:1041000093288BA98B698B698B698B6983A992E84A
:10411000A1449A46A185A144A144A164A1C6A1C617
:1041200099459944992491C5920691648B488B686E
:104130008B688B688B688B688B899267910491A5DB
:104140008A8791459165914491C59AC89164994532
:10415000916591A5AB2A91A5994499659184BB6A13
:1041600099C5996599659164BBECAA279164996595
:104170009164C42BB26890E3A1E5C40C99A599A5FC
:104180009964A226BBCB99849985A1659A26AB6ACE
:104190009985A1649964A1E5AB299964998599648D
:1041A00099C5A2C891859964996499A59A879965DA
:1041B000A185A14499C59AE8A185A164A16499E566
:1041C000B309A924A103AAE9AAE9A144A185A123CD
:1041D000BB29C36AA124A985A124B2E8C3EBA143EA
:1041E000A964A164AA46BB8BA164A164A924A1C54A
:1041F000A349A164A164A94499A5A2E8A164A1442A
:1042000093288BA98B698B698B698B6983A992E849
:10421000A1449A46A164A144A144A144A1C6A1A677
:1042200099659944992491C5920691648B488B684D
:104230008B688B688B688B688B899287912491A59A
:104240008A8799859985916591E69AC891C591A4C7
:10425000918491E6AB2A91E599A5998691E5B36B96
:104260009A0691A599C691C5C3EBAA4799A5A1C67F
:1042700099A5C44CAA678903A206BC0B910491249A
:10428000910499C6BBCB91049904990499C5AB4993
:10429000912499049924A185A32999449944A1249E
:1042A00099859AC89924A1249924A18592A7A1242B
:1042B0009944A124A18592C8A124A124A103A1A568
:1042C000AB29A144A103AAE8B309A184A1C5A18493
:1042D000C349C38AA985A9E6A9A5C309CBEBA1A4B3
:1042E000A9C5A9A4B266C3ABA1A4A1C5A184A226F5
:1042F000AB49A1A5A985A184A1C5A2E8A144A14477
:1043000093288BA98B698B698B698B6983A992E848
:10431000A1449A46A164A124A144A144A1A699C69E
:1043200099459944992491C5920691648B488B686C
:104330008B688B688B688B688B899267912491A5B9
:104340008AE892C792C792C8930893899AE8A3090A
:10435000A3299B49A40BA349AB4AAB4AABAAB46CB3
:10436000BBEBBBCBBC0CBC0BCD0EC48CC44CCC6D1E
:10437000D48DE54FA24688E3A1E6C42B9124914455
:104380009124A1E6BBEB91249924912499C5AB49D2
:10439000994499259924A1A6A329A1449924A1244B
:1043A00099A5A2E9A144A1249924A1858AA7A144A1
:1043B0009944A124A18592A8A144A144A124A1A526
:1043C000A3099944A0E4AAE7BC6CBBCBC40CC40C01
:1043D000CCCDD50ECC6DD4ADD48DD50ED54ECC4C28
:1043E000CC4CCC0BC46CC4CDBBCAB3CAB38AB38AA1
:1043F000A42BAB49A349A329A3499B49A144A144A8
:1044000093288BA98B698B698B698B6983A992C768
:1044100099249A269964A124A144A144A9A699C6E5
:1044200099459945992491C5920691648B488B686A
:104430008B688B688B688B688B899267910491A5D8
:104440008A8791649164914491C59AC89165994510
:1044500091449185A3099184914491449164AB491D
:1044600091C5914491659164BBAB9A069124916486
:104470009123C40BAA6790E4A1E6C40C9144914433
:104480009124A1E6BBEB91249925992499C5AB6AA7
:1044900099049944992499A59B29992499249904CC
:1044A00099A59AE99944A124994499859AC899446F
:1044B000A124A12499859AA89944A144A12499A54D
:1044C000A329A144A104AAE8A2C79924A1849923FD
:1044D000B309BB6A9923A1649923B2E8C3CA99239B
:1044E000A144A144A226BB8A99439964A144A1C5D1
:1044F000A329A1649964A14499A4A2E8A164A14458
:1045000093298BAA8B6983698B898B6983A992C74D
:1045100099249A269965A124A144A144A9C699C6C3
:1045200099459945992491C5920691648B488B6869
:104530008B688B688B688B6883A98A87910499A59F
:1045400092679904990498E491659A889124990452
:1045500090E49144AAE99124910490E39123B32932
:10456000896488E498E490E3B38A99A690A390E4E0
:104570008882BBEAAA6890E3A206C40C91449144E5
:104580009124A1E6BBEB91249945992599C5AB6A85
:10459000996499449943A1C5AB2999649964994454
:1045A00099C5A2C99185A165992491C59AA7A1240D
:1045B000A145A12499859AA89944A124A12499A54B
:1045C000A309A144A104AAE8AA6798A3A0E4988338
:1045D000B2A8B309988298E39882B287C38A988276
:1045E000A0E398A2A1C5BB4A98C2A8E4A0E399A5FC
:1045F000AB099903A103A8C39944A2E8A164A1440B
:1046000093298BCA8B698B698B898B6983A992C724
:1046100099249A269965A124A144A144A1C6A1C7C1
:1046200099449945992491C5920691648B488B6869
:104630008B688B688B688B688B898A66910499A5D7
:104640008AE78A469267924792A7934892879A8808
:104650009A879AC89BAA9AC89AC8A2C8A2E8AC0B23
:10466000A329AB29AB29AB49C4ACB3CBBB6AB38A92
:10467000BB8ACCEEA24790C3A206C42C91449144BD
:104680009124A1E6BBEB9124994590E39A05B4AD42
:10469000BC4CB40BAC0BAC0BAC4CA3EBA3EBA3CA64
:1046A0009BCA9BEB93899B899B6993AA92E8992467
:1046B0009944A12499859AA89944A124A12499A553
:1046C000A309994498E4AAA7B3CAB2E9B349B329A4
:1046D000C44CC48CBB69C3AAC38ACC8CD4EDBB497F
:1046E000BB8ABB69BBCAC46CB329B329AB09AB296C
:1046F000ABCBA2E8A2C8A2A89AE89B49A144A124F6
:1047000093298BCA8B898B698B898B6983A992C703
:1047100099249A269965A124A144A144A1A699C6E9
:1047200099459945992491C5920691658B288B6886
:104730008B688B688B688B688B898A67990491A5D5
:104740008AE78A46924692469287934892669A678B
:104750009A6792A79BAAA2A89A88A2A8A2C8ABEB24
:10476000AB08AAE8AB09B309C48CB3AAB329BB6AE6
:10477000B369CCCEA26788E3A206C42C99449144C5
:104780009124A1E6BBEB9144910491C5CC4CBD4D65
:10479000B50DB4CDB4CDAC8DAC6CAC6CA46CAC4CE4
:1047A000A42B9C0B9C2B9C0A93EA940A93AA9A46EE
:1047B0009924A124998592C8994499449924A1A542
:1047C000A309994498E3A2A7ABCAB2E8B309B2E936
:1047D000C42BC46BBB29C369C369CC4CDCEDBB29BA
:1047E000BB4ABB49BBAAC46CB2E8AB09B2C8AB08B0
:1047F000ABCAA2A7A2C8A2A7A2C79B499944A12459
:10480000934993CA8B898B698B698B698BA992C7F2
:10481000A14492269965A124A144A145A1A7A185FF
:1048200099249924990491A599C691449328838841
:1048300083688368836883688B88926698E491A50F
:1048400092669904910490E391659288910498C4CA
:1048500098C48944A2C9910490E390C388E3AB0A49
:10486000912488A388C488A2B36A9185808290A38A
:104870008061BBABA22780A299C6C40C90C29104F0
:1048800088C399A5BBCB80C39165BC6DCD8FB52C7A
:10489000B50DB4CDAC8CAC8CA46CA46CA46C9C4B4E
:1048A0009C2B9C2B9C0B93EA93EA93EA8BEA9389CB
:1048B0009A06990399649287A12499249903A16483
:1048C000A308992498C3AA88A247988298C39062A3
:1048D000B287B2C8904290839042AA47C36A884286
:1048E00098A39082A1A5BB4A908298C398829964AC
:1048F000AB0998C398C398C39903A2E8A12499036C
:1049000093298BCA8BA983898369836983C98AC7E1
:1049100099249A06994499249924A124A9A69246F7
:1049200092269206920592669286922693698BA9A8
:104930008B888B888B888B88938992E791E5926628
:1049400092E79A069A06920692679B2892469A46A2
:104950009A469AA7AB8A9A87A267A2679AA7B3CB0F
:10496000AAE8AA87AAA8A2A7C46CB349B2C8B2E8A9
:10497000B2C8D4ADC3CBB2E8C38ADD0FB309B30963
:10498000AAE8B389D4ACAAC7C46DD5CFCD6EC54E45
:10499000C50EBCEEB4CDB4ADB4ADAC8CAC6CAC6CEF
:1049A000A46BA44BA42B9C0B9C0A9BEA93CA93EA8E
:1049B0009B8A92469A4692E89A27A247A226A28705
:1049C000A38AA267A246B36AAB69AA66B2A8AA87FD
:1049D000C3EBCC4CBAC8BAE8BAC8CC2CDCCEB2E82F
:1049E000BB09B2C8BB89CC6CAAC7B2A8B287AAE877
:1049F000B3EBA287AA67A247A2A8A38AA2679A4696
:104A00009B8A940B93CA93A98B898B898BA9932832
:104A100092269AA89A269A069A069A2692469B8CDD
:104A20009B8A938A938A938A938A9369938A9369D8
:104A3000936A936993699369936A8B8A938A938A39
:104A40008B8993899389938993AA93CA9BCA9BCB99
:104A5000A3EBA40BA42BA42CAC2CB44CAC6DB46C69
:104A6000B48DBCCEC4EEC50FCD2FCD4FD570DD704B
:104A7000DD90D5B0E5B1E5F2E5F2DDD0DDF0DDD0D9
:104A8000DDB0D590D56FD550CD4FC50EC4EEBCCEA0
:104A9000BCAEBC8EB46DB44DAC4DAC2CAC2CAC2CBF
:104AA000A40CA40CA3EBA3CBA3CBA3CB9BCB93AA2B
:104AB0009BAB9B8A938A9BAB9BABA3CBA3ECA40C35
:104AC000A40CAC2CB44CAC4CB48DC4AEC50ECD0F04
:104AD000CD2FCD4FDD8FDDB0E5D1DDF1E5D1E5D1D5
:104AE000DDB1DD90D570CD4FCD2FCD0FC4EEBCAD77
:104AF000B4ADB46CB44DB42CAC2CA42CA42CA40C2C
:104B0000A3CB9BCB9B8A938A936A936A936A938A7B
:104B1000938A93AA938A938A938A9B8AA3CC000050
:104B20000000000000000000000000000006F0FF90
:104B3000FF0F00C0000000C0000000400000006047
:104B400000000060000000600000006000000060E5
:104B5000C000E0FFFF010030C0000030C0000030A6
:104B6000C0000030C0000030C0000010C0000018BD
:104B7000C0000018C0000018C0000018C0000018D5
:104B8000C018FCFFFF3F0000000000000000000014
:104B9000000000000000000000008000C00080FF56
:104BA000FF008001C0008001C0008001C0008001C2
:104BB000C00080FFFF008001C00000000000200056
:104BC0000001E0FFFF0360C0000160C0000160C0A1
:104BD000000160C0000160C00001E0FFFF01600053
:104BE000000160000008600000086000000860002C
:104BF0000008E000001CC0FFFF1F000000000000D4
:104C000000000000000000000000004000000080E4
:104C10000100008001000080010000800100008090
:104C200001000080010000800118FCFFFF3F0080B0
:104C3000010000C0010000C0010000C0010000C070
:104C4000020000C006000060040000600C000020AC
:104C50000800003010000018300000186000000C40
:104C6000C001000780038001001F4000003E3000AB
:104C700000080C0000000000000000000000000020
:104C800000004060800180C1C00100C3C1000087F6
:104C90006100008621000086100000001018F0FF5F
:104CA000FF3F3000000C380000041800600280FF55
:104CB000FF000000300000000800008006000080B7
:104CC00003080080011CF8FFFF0300800100008042
:104CD000010000800100008001000080010000F858
:104CE000010000E0010000400000000000000000A2
:104CF000104D00080000002034040000C40100082A
:104D00008C4F0008340400203CF700002802000803
:104D1000100904010411040D7C0308600E216421B4
:104D20001C3E84008000FF7F80000243200202605E
:104D30000D2222242224122812280A2806141004E4
:104D4000FF7F00011024840F8808880880084070C5
:104D50002F00C81F881088080809280518020805B0
:104D6000C018306000020402080212000223EF7F24
:104D70000A4102400428021816F101120C026106D1
:104D800012008043FC1F6C30048000F86A6106400A
:104D900007200210040808AA1010FE3FC001A0025C
:104DA00090048808841083608096D01A24114422CD
:104DB000422201201001101108090C078A01692103
:104DC0000821083E88E0101988008820881C880384
:104DD000BF408840087F2800983F8C208B20883F68
:104DE00016100E208A3F84200000FC0F04080408DF
:104DF00006200D200420F83F00040004FF7F100D62
:104E0000300F040005000240004010FC0B4004403D
:104E1000A22019400030081807F4001210111010D9
:104E200010E01F00001000D07F1204026005923FC6
:104E3000922402040B1E902C88140804040402041B
:104E400000A1DE14078C188360F0074A4201C212E9
:104E5000A07025A64740010C23F417FC25286516F1
:104E6000021F0001053E00011EE01406100A101288
:104E7000F0F81813E83F2C22EC3F2A22E93F2822C1
:104E80000810F87F48102A08041E1408080018208B
:104E900000021E021202EA7F0A0186048A045204FA
:104EA000D23F120496148A2442442244020502404E
:104EB00010197F3E1422143E7F22553E5508550A94
:104EC000753E430941087F3E410806777F412096A1
:104ED000503E140C8000102112491248E10F00BE10
:104EE0001C05E0381C0706031C0C017C01447F44B0
:104EF0001144117C111203140A1182108210411006
:104F00002010E01F002012031804100010B67806CD
:104F10000C02EA3F09C413F87FBF130120021310EB
:104F2000021E380A0404084210416020009A40041E
:104F300004FC0FDE1BFC1F05200410FE17065004A6
:104F4000F8110802210A04041F00140000140508C7
:104F50000810086C11E865CE115055BC2D80031364
:104F60000801021D76032C0EDF0828050C021C0523
:104F7000AA184A60A9860325601D8E03091E003405
:0C4F8000043200016702190124E11C004A
:040000050800018965
:00000001FF
